{
  "contractName": "GTDToken",
  "abi": [
    {
      "inputs": [],
      "payable": false,
      "stateMutability": "nonpayable",
      "type": "constructor"
    },
    {
      "anonymous": false,
      "inputs": [
        {
          "indexed": true,
          "internalType": "address",
          "name": "tokenOwner",
          "type": "address"
        },
        {
          "indexed": true,
          "internalType": "address",
          "name": "spender",
          "type": "address"
        },
        {
          "indexed": false,
          "internalType": "uint256",
          "name": "tokens",
          "type": "uint256"
        }
      ],
      "name": "Approval",
      "type": "event"
    },
    {
      "anonymous": false,
      "inputs": [
        {
          "indexed": true,
          "internalType": "address",
          "name": "from",
          "type": "address"
        },
        {
          "indexed": true,
          "internalType": "address",
          "name": "to",
          "type": "address"
        },
        {
          "indexed": false,
          "internalType": "uint256",
          "name": "tokens",
          "type": "uint256"
        }
      ],
      "name": "Transfer",
      "type": "event"
    },
    {
      "constant": true,
      "inputs": [],
      "name": "name",
      "outputs": [
        {
          "internalType": "string",
          "name": "",
          "type": "string"
        }
      ],
      "payable": false,
      "stateMutability": "view",
      "type": "function"
    },
    {
      "constant": true,
      "inputs": [],
      "name": "symbol",
      "outputs": [
        {
          "internalType": "string",
          "name": "",
          "type": "string"
        }
      ],
      "payable": false,
      "stateMutability": "view",
      "type": "function"
    },
    {
      "constant": true,
      "inputs": [],
      "name": "getQueueLength",
      "outputs": [
        {
          "internalType": "uint256",
          "name": "",
          "type": "uint256"
        }
      ],
      "payable": false,
      "stateMutability": "view",
      "type": "function"
    },
    {
      "constant": true,
      "inputs": [],
      "name": "productsSold",
      "outputs": [
        {
          "internalType": "uint256",
          "name": "",
          "type": "uint256"
        }
      ],
      "payable": false,
      "stateMutability": "view",
      "type": "function"
    },
    {
      "constant": true,
      "inputs": [
        {
          "internalType": "address",
          "name": "tokenOwner",
          "type": "address"
        }
      ],
      "name": "balanceOf",
      "outputs": [
        {
          "internalType": "uint256",
          "name": "balance",
          "type": "uint256"
        }
      ],
      "payable": false,
      "stateMutability": "view",
      "type": "function"
    },
    {
      "constant": false,
      "inputs": [],
      "name": "expressInterest",
      "outputs": [],
      "payable": true,
      "stateMutability": "payable",
      "type": "function"
    },
    {
      "constant": true,
      "inputs": [],
      "name": "getOwner",
      "outputs": [
        {
          "internalType": "address",
          "name": "",
          "type": "address"
        }
      ],
      "payable": false,
      "stateMutability": "view",
      "type": "function"
    },
    {
      "constant": false,
      "inputs": [],
      "name": "initiateSelling",
      "outputs": [],
      "payable": false,
      "stateMutability": "nonpayable",
      "type": "function"
    },
    {
      "constant": false,
      "inputs": [
        {
          "internalType": "uint256",
          "name": "tokens",
          "type": "uint256"
        }
      ],
      "name": "addNewStock",
      "outputs": [],
      "payable": false,
      "stateMutability": "nonpayable",
      "type": "function"
    }
  ],
  "bytecode": "0x60806040526001600555600060065534801561001a57600080fd5b506040518060400160405280600881526020017f475444546f6b656e0000000000000000000000000000000000000000000000008152506000908051906020019061006692919061020f565b506040518060400160405280600381526020017f4754440000000000000000000000000000000000000000000000000000000000815250600190805190602001906100b292919061020f565b506000600260006101000a81548160ff021916908360ff160217905550606460038190555033600260016101000a81548173ffffffffffffffffffffffffffffffffffffffff021916908373ffffffffffffffffffffffffffffffffffffffff16021790555060035460076000600260019054906101000a900473ffffffffffffffffffffffffffffffffffffffff1673ffffffffffffffffffffffffffffffffffffffff1673ffffffffffffffffffffffffffffffffffffffff16815260200190815260200160002081905550600260019054906101000a900473ffffffffffffffffffffffffffffffffffffffff1673ffffffffffffffffffffffffffffffffffffffff16600073ffffffffffffffffffffffffffffffffffffffff167fddf252ad1be2c89b69c2b068fc378daa952ba7f163c4a11628f55a4df523b3ef6003546040518082815260200191505060405180910390a36102b4565b828054600181600116156101000203166002900490600052602060002090601f016020900481019282601f1061025057805160ff191683800117855561027e565b8280016001018555821561027e579182015b8281111561027d578251825591602001919060010190610262565b5b50905061028b919061028f565b5090565b6102b191905b808211156102ad576000816000905550600101610295565b5090565b90565b610b60806102c36000396000f3fe6080604052600436106100865760003560e01c8063b339defc11610059578063b339defc14610267578063b4209b44146102a2578063b8f77005146102cd578063c3a4343c146102f8578063e1f8ce1f1461030257610086565b806306fdde031461008b57806370a082311461011b578063893d20e81461018057806395d89b41146101d7575b600080fd5b34801561009757600080fd5b506100a0610319565b6040518080602001828103825283818151815260200191508051906020019080838360005b838110156100e05780820151818401526020810190506100c5565b50505050905090810190601f16801561010d5780820380516001836020036101000a031916815260200191505b509250505060405180910390f35b34801561012757600080fd5b5061016a6004803603602081101561013e57600080fd5b81019080803573ffffffffffffffffffffffffffffffffffffffff1690602001909291905050506103b7565b6040518082815260200191505060405180910390f35b34801561018c57600080fd5b50610195610400565b604051808273ffffffffffffffffffffffffffffffffffffffff1673ffffffffffffffffffffffffffffffffffffffff16815260200191505060405180910390f35b3480156101e357600080fd5b506101ec61042a565b6040518080602001828103825283818151815260200191508051906020019080838360005b8381101561022c578082015181840152602081019050610211565b50505050905090810190601f1680156102595780820380516001836020036101000a031916815260200191505b509250505060405180910390f35b34801561027357600080fd5b506102a06004803603602081101561028a57600080fd5b81019080803590602001909291905050506104c8565b005b3480156102ae57600080fd5b506102b76105a4565b6040518082815260200191505060405180910390f35b3480156102d957600080fd5b506102e2610611565b6040518082815260200191505060405180910390f35b610300610622565b005b34801561030e57600080fd5b50610317610650565b005b60008054600181600116156101000203166002900480601f0160208091040260200160405190810160405280929190818152602001828054600181600116156101000203166002900480156103af5780601f10610384576101008083540402835291602001916103af565b820191906000526020600020905b81548152906001019060200180831161039257829003601f168201915b505050505081565b6000600760008373ffffffffffffffffffffffffffffffffffffffff1673ffffffffffffffffffffffffffffffffffffffff168152602001908152602001600020549050919050565b6000600260019054906101000a900473ffffffffffffffffffffffffffffffffffffffff16905090565b60018054600181600116156101000203166002900480601f0160208091040260200160405190810160405280929190818152602001828054600181600116156101000203166002900480156104c05780601f10610495576101008083540402835291602001916104c0565b820191906000526020600020905b8154815290600101906020018083116104a357829003601f168201915b505050505081565b600260019054906101000a900473ffffffffffffffffffffffffffffffffffffffff1673ffffffffffffffffffffffffffffffffffffffff163373ffffffffffffffffffffffffffffffffffffffff161461052257600080fd5b8060076000600260019054906101000a900473ffffffffffffffffffffffffffffffffffffffff1673ffffffffffffffffffffffffffffffffffffffff1673ffffffffffffffffffffffffffffffffffffffff168152602001908152602001600020600082825401925050819055508060036000828254019250508190555050565b600060076000600260019054906101000a900473ffffffffffffffffffffffffffffffffffffffff1673ffffffffffffffffffffffffffffffffffffffff1673ffffffffffffffffffffffffffffffffffffffff1681526020019081526020016000205460035403905090565b600060016005546006540301905090565b343373ffffffffffffffffffffffffffffffffffffffff16311161064557600080fd5b61064e33610803565b565b600260019054906101000a900473ffffffffffffffffffffffffffffffffffffffff1673ffffffffffffffffffffffffffffffffffffffff163373ffffffffffffffffffffffffffffffffffffffff16146106aa57600080fd5b6106b2610611565b6106dd600260019054906101000a900473ffffffffffffffffffffffffffffffffffffffff166103b7565b10156106e857600080fd5b600060076000600260019054906101000a900473ffffffffffffffffffffffffffffffffffffffff1673ffffffffffffffffffffffffffffffffffffffff1673ffffffffffffffffffffffffffffffffffffffff16815260200190815260200160002054610754610611565b1161076657610761610611565b6107c9565b60076000600260019054906101000a900473ffffffffffffffffffffffffffffffffffffffff1673ffffffffffffffffffffffffffffffffffffffff1673ffffffffffffffffffffffffffffffffffffffff168152602001908152602001600020545b905060008090505b818110156107ff5760006107e361086b565b90506107f0816001610908565b505080806001019150506107d1565b5050565b60016006600082825401925050819055508060046000600654815260200190815260200160002060006101000a81548173ffffffffffffffffffffffffffffffffffffffff021916908373ffffffffffffffffffffffffffffffffffffffff16021790555050565b6000600554600654101561087e57600080fd5b600060046000600554815260200190815260200160002060009054906101000a900473ffffffffffffffffffffffffffffffffffffffff16905060046000600554815260200190815260200160002060006101000a81549073ffffffffffffffffffffffffffffffffffffffff021916905560016005600082825401925050819055508091505090565b600061097560076000600260019054906101000a900473ffffffffffffffffffffffffffffffffffffffff1673ffffffffffffffffffffffffffffffffffffffff1673ffffffffffffffffffffffffffffffffffffffff1681526020019081526020016000205483610af7565b60076000600260019054906101000a900473ffffffffffffffffffffffffffffffffffffffff1673ffffffffffffffffffffffffffffffffffffffff1673ffffffffffffffffffffffffffffffffffffffff16815260200190815260200160002081905550610a23600760008573ffffffffffffffffffffffffffffffffffffffff1673ffffffffffffffffffffffffffffffffffffffff1681526020019081526020016000205483610b11565b600760008573ffffffffffffffffffffffffffffffffffffffff1673ffffffffffffffffffffffffffffffffffffffff168152602001908152602001600020819055508273ffffffffffffffffffffffffffffffffffffffff16600260019054906101000a900473ffffffffffffffffffffffffffffffffffffffff1673ffffffffffffffffffffffffffffffffffffffff167fddf252ad1be2c89b69c2b068fc378daa952ba7f163c4a11628f55a4df523b3ef846040518082815260200191505060405180910390a36001905092915050565b600082821115610b0657600080fd5b818303905092915050565b6000818301905082811015610b2557600080fd5b9291505056fea265627a7a7231582022286dc3383c26181c2e76737a008032051cefb99dceece3bd733b566f02d3dc64736f6c63430005100032",
  "source": "pragma solidity ^0.5.16;\n\n// ----------------------------------------------------------------------------\n// ERC Token Standard #20 Interface\n//\n// ----------------------------------------------------------------------------\ncontract ERC20Interface {\n    function totalSupply() internal view returns (uint);\n    function balanceOf(address tokenOwner) public view returns (uint balance);\n    function allowance(address tokenOwner, address spender) internal view returns (uint remaining);\n    function transfer(address to, uint tokens) internal returns (bool success);\n    function approve(address spender, uint tokens) internal returns (bool success);\n    function transferFrom(address from, address to, uint tokens) internal returns (bool success);\n\n    event Transfer(address indexed from, address indexed to, uint tokens);\n    event Approval(address indexed tokenOwner, address indexed spender, uint tokens);\n}\n\n// ----------------------------------------------------------------------------\n// Safe Math Library\n// ----------------------------------------------------------------------------\ncontract SafeMath {\n    function safeAdd(uint a, uint b) internal pure returns (uint c) {\n        c = a + b;\n        require(c >= a);\n    }\n    function safeSub(uint a, uint b) internal pure returns (uint c) {\n        require(b <= a); c = a - b; } \n    function safeMul(uint a, uint b) internal pure returns (uint c) {\n        c = a * b; \n        require(a == 0 || c / a == b); \n        \n    } \n    function safeDiv(uint a, uint b) internal pure returns (uint c) { \n        require(b > 0);\n        c = a / b;\n    }\n}\n\n\ncontract  GTDToken is ERC20Interface, SafeMath {\n    string public name;\n    string public symbol;\n    uint8 internal decimals; // 18 decimals is the strongly suggested default, avoid changing it\n    address payable owner;\n    uint256 internal _totalSupply;\n    \n    // queue\n    mapping(uint256 => address) queue;\n    uint256  internal first=1;\n    uint256 internal last=0;\n\n    mapping(address => uint) balances;\n    mapping(address => mapping(address => uint)) allowed;\n    \n    function enqueue(address data) internal {\n        last += 1;\n        queue[last] = data;\n    }\n\n    function dequeue() internal returns (address) {\n        require(last >= first);  // non-empty queue\n\n        address customerAdd = queue[first];\n\n        delete queue[first];\n        first += 1;\n        return customerAdd;\n    }\n    function getQueueLength() public view returns (uint){\n        return last-first+1;\n    }\n    \n    \n    /**\n     * Constructor function\n     *\n     * Initializes contract with initial supply tokens to the creator of the contract\n     */\n    constructor() public {\n        name = \"GTDToken\";\n        symbol = \"GTD\";\n        decimals = 0;\n        _totalSupply = 100;\n        owner = msg.sender;\n        balances[owner] = _totalSupply;\n        emit Transfer(address(0), owner, _totalSupply);\n    }\n    \n    // modifiers -3\n    modifier onlyOwner(){\n            require(msg.sender == owner);\n            _;\n        }\n    modifier checkBalance(){\n            require(msg.sender.balance > msg.value);\n            _;\n        }\n    modifier checkStockAvailability(){\n            require(balanceOf(owner) >= getQueueLength());\n            _;\n        }\n        \n    //ERC20 Token methods\n    function totalSupply() internal view returns (uint) {\n        return _totalSupply -  balances[owner];\n    }\n    \n    function productsSold() public view returns (uint) {\n        return _totalSupply -  balances[owner];\n    }\n\n    function balanceOf(address tokenOwner) public view returns (uint balance) {\n        return balances[tokenOwner];\n    }\n\n    function allowance(address tokenOwner, address spender) internal view returns (uint remaining) {\n        return allowed[tokenOwner][spender];\n    }\n\n    function approve(address spender, uint tokens) internal returns (bool success) {\n        allowed[msg.sender][spender] = tokens;\n        emit Approval(msg.sender, spender, tokens);\n        return true;\n    }\n\n    function transfer(address to, uint tokens) internal returns (bool success) {\n        balances[owner] = safeSub(balances[owner], tokens);\n        balances[to] = safeAdd(balances[to], tokens);\n        emit Transfer(owner, to, tokens);\n        return true;\n    }\n\n    function transferFrom(address from, address to, uint tokens) internal returns (bool success) {\n        balances[from] = safeSub(balances[from], tokens);\n        allowed[from][msg.sender] = safeSub(allowed[from][msg.sender], tokens);\n        balances[to] = safeAdd(balances[to], tokens);\n        emit Transfer(from, to, tokens);\n        return true;\n    }\n    //Smart Contract methods - 4\n    function expressInterest() public checkBalance payable{\n        enqueue(msg.sender);\n        //payForToken();\n    }\n     \n    function payForToken() internal{\n         owner.transfer(msg.value);\n    }\n    \n    function getOwner() public view returns (address){\n       return owner;\n    }\n    \n    function initiateSelling() public onlyOwner checkStockAvailability {\n        uint len = getQueueLength() > balances[owner]?  balances[owner]: getQueueLength();\n        for(uint i = 0;i<len;i++){\n            address top_customer_address =  dequeue();\n            transfer(top_customer_address,1);\n        }\n    }\n    \n    function addNewStock(uint  tokens) public onlyOwner{\n        balances[owner]+=tokens;\n        _totalSupply+=tokens;\n    }\n    \n}",
  "sourcePath": "/Users/sakshiramdurgekar/Desktop/BlockChain Project1  Phase2/GTDToken-Dapp/gtdtoken-contract/contracts/GTDToken.sol",
  "compiler": {
    "name": "solc",
    "version": "0.5.16+commit.9c3226ce.Emscripten.clang"
  },
  "schemaVersion": "3.0.23",
  "updatedAt": "2021-11-28T20:31:53.566Z",
  "networkType": "ethereum",
  "devdoc": {
    "methods": {}
  },
  "userdoc": {
    "methods": {
      "constructor": "Constructor function     * Initializes contract with initial supply tokens to the creator of the contract"
    }
  }
}